{
  "contractName": "Roulette",
  "abi": [
    {
      "constant": true,
      "inputs": [
        {
          "name": "",
          "type": "uint256"
        }
      ],
      "name": "playerlist",
      "outputs": [
        {
          "name": "name",
          "type": "string"
        },
        {
          "name": "adr",
          "type": "address"
        },
        {
          "name": "pos",
          "type": "uint256"
        }
      ],
      "payable": false,
      "stateMutability": "view",
      "type": "function"
    },
    {
      "constant": true,
      "inputs": [],
      "name": "memberOfList",
      "outputs": [
        {
          "name": "",
          "type": "uint256"
        }
      ],
      "payable": false,
      "stateMutability": "view",
      "type": "function"
    },
    {
      "constant": true,
      "inputs": [],
      "name": "basePrice",
      "outputs": [
        {
          "name": "",
          "type": "uint256"
        }
      ],
      "payable": false,
      "stateMutability": "view",
      "type": "function"
    },
    {
      "constant": true,
      "inputs": [],
      "name": "playersTop",
      "outputs": [
        {
          "name": "",
          "type": "uint256"
        }
      ],
      "payable": false,
      "stateMutability": "view",
      "type": "function"
    },
    {
      "inputs": [],
      "payable": false,
      "stateMutability": "nonpayable",
      "type": "constructor"
    },
    {
      "anonymous": false,
      "inputs": [
        {
          "indexed": false,
          "name": "basePrice",
          "type": "uint256"
        },
        {
          "indexed": false,
          "name": "playersTop",
          "type": "uint256"
        },
        {
          "indexed": false,
          "name": "memberOfList",
          "type": "uint256"
        }
      ],
      "name": "InitialData",
      "type": "event"
    },
    {
      "anonymous": false,
      "inputs": [
        {
          "indexed": false,
          "name": "state",
          "type": "bool"
        }
      ],
      "name": "MessageData",
      "type": "event"
    },
    {
      "anonymous": false,
      "inputs": [
        {
          "indexed": false,
          "name": "adr",
          "type": "address"
        },
        {
          "indexed": false,
          "name": "name",
          "type": "string"
        }
      ],
      "name": "WinnerData",
      "type": "event"
    },
    {
      "constant": false,
      "inputs": [
        {
          "name": "nameplayer",
          "type": "string"
        }
      ],
      "name": "participate",
      "outputs": [],
      "payable": true,
      "stateMutability": "payable",
      "type": "function"
    }
  ],
  "bytecode": "0x608060405234801561001057600080fd5b5067016345785d8a0000600081905550600460018190555060006003819055506001600260006101000a81548160ff0219169083151502179055507f7045cf9c5b36c8bc0828f18ca52f3fef16a2f882763c9085e0e76f9d5fe53e2060005460015460035460405180848152602001838152602001828152602001935050505060405180910390a17f1fc3ea95d90bbe912226769b8541eea1c339b4f25c4a60ddc586cb7e1d104f54600260009054906101000a900460ff16604051808215151515815260200191505060405180910390a16107e1806100f16000396000f30060806040526004361061006d576000357c0100000000000000000000000000000000000000000000000000000000900463ffffffff1680631d27769f1461007257806343072922146100ce57806388bef758146101ae578063c7876ea4146101d9578063c7eacfac14610204575b600080fd5b6100cc600480360381019080803590602001908201803590602001908080601f016020809104026020016040519081016040528093929190818152602001838380828437820191505050505050919291929050505061022f565b005b3480156100da57600080fd5b506100f96004803603810190808035906020019092919050505061031c565b60405180806020018473ffffffffffffffffffffffffffffffffffffffff1673ffffffffffffffffffffffffffffffffffffffff168152602001838152602001828103825285818151815260200191508051906020019080838360005b83811015610171578082015181840152602081019050610156565b50505050905090810190601f16801561019e5780820380516001836020036101000a031916815260200191505b5094505050505060405180910390f35b3480156101ba57600080fd5b506101c36103fe565b6040518082815260200191505060405180910390f35b3480156101e557600080fd5b506101ee610404565b6040518082815260200191505060405180910390f35b34801561021057600080fd5b5061021961040a565b6040518082815260200191505060405180910390f35b60011515600260009054906101000a900460ff161515148015610253575060005434145b156102ca576102628133610410565b600154600354101515610278576102776104c8565b5b7f7045cf9c5b36c8bc0828f18ca52f3fef16a2f882763c9085e0e76f9d5fe53e2060005460015460035460405180848152602001838152602001828152602001935050505060405180910390a1610319565b7f1fc3ea95d90bbe912226769b8541eea1c339b4f25c4a60ddc586cb7e1d104f54600260009054906101000a900460ff16604051808215151515815260200191505060405180910390a1600080fd5b50565b6004602052806000526040600020600091509050806000018054600181600116156101000203166002900480601f0160208091040260200160405190810160405280929190818152602001828054600181600116156101000203166002900480156103c85780601f1061039d576101008083540402835291602001916103c8565b820191906000526020600020905b8154815290600101906020018083116103ab57829003601f168201915b5050505050908060010160009054906101000a900473ffffffffffffffffffffffffffffffffffffffff16908060020154905083565b60035481565b60005481565b60015481565b6001600360008282540192505081905550600354600460006003548152602001908152602001600020600201819055508060046000600354815260200190815260200160002060010160006101000a81548173ffffffffffffffffffffffffffffffffffffffff021916908373ffffffffffffffffffffffffffffffffffffffff1602179055508160046000600354815260200190815260200160002060000190805190602001906104c3929190610710565b505050565b600060018054428115156104d857fe5b060190506004600082815260200190815260200160002060010160009054906101000a900473ffffffffffffffffffffffffffffffffffffffff1673ffffffffffffffffffffffffffffffffffffffff166108fc3073ffffffffffffffffffffffffffffffffffffffff16319081150290604051600060405180830381858888f1935050505015801561056f573d6000803e3d6000fd5b506000600260006101000a81548160ff0219169083151502179055507faae9a47a0de43d131c0f645dba2b1d3192b81ce384cab8098e7b5b633a283faa6004600083815260200190815260200160002060010160009054906101000a900473ffffffffffffffffffffffffffffffffffffffff1660046000848152602001908152602001600020600001604051808373ffffffffffffffffffffffffffffffffffffffff1673ffffffffffffffffffffffffffffffffffffffff168152602001806020018281038252838181546001816001161561010002031660029004815260200191508054600181600116156101000203166002900480156106b45780601f10610689576101008083540402835291602001916106b4565b820191906000526020600020905b81548152906001019060200180831161069757829003601f168201915b5050935050505060405180910390a17f1fc3ea95d90bbe912226769b8541eea1c339b4f25c4a60ddc586cb7e1d104f54600260009054906101000a900460ff16604051808215151515815260200191505060405180910390a150565b828054600181600116156101000203166002900490600052602060002090601f016020900481019282601f1061075157805160ff191683800117855561077f565b8280016001018555821561077f579182015b8281111561077e578251825591602001919060010190610763565b5b50905061078c9190610790565b5090565b6107b291905b808211156107ae576000816000905550600101610796565b5090565b905600a165627a7a723058200aa5e0158291494bbf9b0096f6ad2e794a33621c76e1fba44527e20fc74791f90029",
  "source": "pragma solidity ^0.4.24;\n\ncontract Roulette {\n\n    uint public basePrice;\n    uint public playersTop;\n\n    bool state;\n    uint public memberOfList;\n\n    struct player {\n        string name;\n        address adr;\n        uint pos;\n    }\n    mapping (uint => player) public playerlist;\n    event InitialData (uint basePrice, uint playersTop, uint memberOfList);\n    //event MessageData (string msg,uint time, bool state);\n    event MessageData (bool state);\n    event WinnerData (address adr , string name);\n\n    constructor () public {\n      basePrice = 1 * 100000000000000000;\n      playersTop =  4;\n      memberOfList = 0;\n      state = true;\n      emit InitialData(basePrice,playersTop,memberOfList);\n      emit MessageData(state);\n    }\n\n    /* functions of help*/\n    function addPlayerToList(string _name, address _address) private {\n        memberOfList += 1;\n        playerlist[memberOfList].pos = memberOfList;\n        playerlist[memberOfList].adr = _address;\n        playerlist[memberOfList].name = _name;\n    }\n\n    function rafflingAndfinishing() private {\n      uint winer = (block.timestamp % playersTop) + 1;\n      playerlist[winer].adr.transfer(address(this).balance);\n      state = false;\n\n      emit WinnerData(playerlist[winer].adr,playerlist[winer].name);\n      emit MessageData(state);\n    }\n     function participate(string nameplayer) public payable {\n      if(state == true && msg.value == basePrice){\n        addPlayerToList(nameplayer, msg.sender);\n        if(memberOfList>=playersTop){\n          rafflingAndfinishing();\n        }\n        emit InitialData(basePrice,playersTop,memberOfList);\n      }else{\n        emit MessageData(state);\n        revert();\n      }\n    }\n}\n",
  "sourcePath": "/home/jkn/Documents/joks/roulette/contracts/Roulette.sol",
  "compiler": {
    "name": "solc",
    "version": "0.4.24+commit.e67f0147.Emscripten.clang"
  },
  "schemaVersion": "2.0.1",
  "updatedAt": "2018-10-06T00:38:20.571Z"
}